:020000021000EC
:10F000000C9446F80C9465F80C9465F80C9465F82B
:10F010000C9465F80C9465F80C9465F80C9465F8FC
:10F020000C9465F80C9465F80C9465F80C9465F8EC
:10F030000C9465F80C9465F80C9465F80C9465F8DC
:10F040000C9465F80C9465F80C9465F80C9465F8CC
:10F050000C9465F80C9465F80C9465F80C9465F8BC
:10F060000C9465F80C9465F80C9465F80C9465F8AC
:10F070000C9465F80C9465F80C9465F80C9465F89C
:10F080000C9465F80C9465F80C9465F811241FBE77
:10F09000CFEFD0E1DEBFCDBF11E0A0E0B1E0EAE20A
:10F0A000F9EF01E00BBF02C007900D92A230B1074B
:10F0B000D9F722E0A2E0B1E001C01D92AD30B20765
:10F0C000E1F70E946DF90C9493FC0C9400F8909178
:10F0D0000501913019F0923029F008955D9BFECF23
:10F0E0008CB9089590919B0095FFFCCF80939C0074
:10F0F0000895CF93982F9595959595959595905DB5
:10F100008F708A304CF4C0E3C80F892F0E9467F8D3
:10F110008C2FCF910C9467F8C7E5C80F892F0E94F8
:10F1200067F88C2FCF910C9467F8CF92DF92EF9213
:10F13000FF9280910501813061F1823031F080E0F1
:10F14000FF90EF90DF90CF900895C12CD12C7601E5
:10F1500080919B0087FD16C08FEFC81AD80AE80A75
:10F16000F80A81E0C8168CE8D8068AE0E806F104BF
:10F1700078F3E0910201F0910301099580919B00E1
:10F1800087FFEACF80919C00FF90EF90DF90CF90B7
:10F190000895C12CD12C76015F9914C08FEFC81A45
:10F1A000D80AE80AF80A81E0C8168CE8D8068AE08E
:10F1B000E806F10488F3E0910201F091030109955A
:10F1C0005F9BECCF8CB1FF90EF90DF90CF900895D4
:10F1D000CF930E9495F8C82F0E9467F8C1364CF46F
:10F1E000C03324F080ED8C0FCF9108958C2FCF91F8
:10F1F000089589EA8C0FCF910895CF930E94E8F883
:10F20000C82F0E94E8F890E1C99F800D1124CF918A
:10F21000089520910501815060F0213059F022308D
:10F22000D1F790919B0097FFFCCF90919C0081506B
:10F23000A0F708955F9BFECF9CB1EDCFCF93C82F71
:10F240000E9495F8803279F0809104018F5F80935D
:10F250000401853011F0CF910895E0910201F09101
:10F260000301CF91099484E10E9467F88C2F0E94DA
:10F2700067F880E1CF910C9467F80E9495F880328E
:10F2800069F0809104018F5F80930401853009F05B
:10F290000895E0910201F0910301099484E10E9434
:10F2A00067F880E10C9467F815C0AC9A2FEF3FE542
:10F2B00093E0215030409040E1F700C00000AC984E
:10F2C0002FEF3FE593E0215030409040E1F700C040
:10F2D000000081508111E9CF089500008091610004
:10F2E0008F7780936100809161008F7B80936100B4
:10F2F00080916200806880936200809162008064E7
:10F300008093620081E080930501E0E0F0E0E49109
:10F3100025E029B9109290001BB896E090939500D3
:10F3200088E18AB930910501323051F42093990077
:10F330001092980010929B0090939D0080939A00E9
:10F34000A49A809105018823B1F0AC9A2FEF3FE594
:10F3500093E0215030409040E1F700C00000AC98AD
:10F36000EFEFFFE523E0E150F0402040E1F700C07F
:10F370000000815051F7DD24D3940E9495F880332A
:10F38000C9F18133D1F1803409F457C0813409F4D3
:10F390005DC0823409F46CC0853409F46FC0982FC5
:10F3A0009D7F903539F1813529F1853509F46CC09F
:10F3B000863509F474C0843609F47AC0843709F4B8
:10F3C000E8C0853709F443C1863709F44DC081325E
:10F3D00009F46BC1809104018F5F80930401853033
:10F3E00061F6E0910201F091030109950E9495F800
:10F3F000803339F60E943DF9C0CF0E9495F88032E3
:10F4000049F784E10E9467F881E40E9467F886E585
:10F410000E9467F882E50E9467F880E20E9467F820
:10F4200089E40E9467F883E50E9467F880E50E94FE
:10F4300067F880E10E9467F8A0CF0E9495F88638AF
:10F44000C8F20E9495F80E943DF997CF0E9495F866
:10F45000803809F422C1813809F423C1823809F4C3
:10F460005AC1883909F408C180E00E941EF985CF8D
:10F4700084E10E9409F90E943DF97FCF85E00E9456
:10F4800009F90E943DF979CF0E9495F88093060111
:10F490000E9495F8809307010E943DF96ECF0E946B
:10F4A00095F8803309F4ECC083E00E9409F9DCCFC1
:10F4B0000E9495F8809309020E9495F880930802B3
:10F4C00080910C028E7F80930C020E9495F8853407
:10F4D00029F480910C02816080930C0280910802D3
:10F4E00090910902892BA1F078E0E72E71E0F72EC8
:10F4F00000E010E00E9495F8F70181937F010F5F13
:10F500001F4F80910802909109020817190790F384
:10F510000E9495F8803209F05DCF80910C0280FF47
:10F520000CC12091060130910701220F331F309347
:10F530000701209306018091080290910902892B0E
:10F5400009F158E0E52E51E0F52EC90100E010E088
:10F5500001C0C901F70161917F010E9486FC2091E1
:10F560000601309107012F5F3F4F30930701209331
:10F5700006010F5F1F4F8091080290910902081742
:10F58000190738F384E10E9467F880E10E9467F868
:10F59000F4CE0E9495F8809309020E9495F880931A
:10F5A0000802809106019091070120910C0297FDBD
:10F5B0003CC12D7F20930C02880F991F9093070167
:10F5C000809306010E9495F8853409F428C1809142
:10F5D0000C028E7F80930C020E9495F8803209F015
:10F5E000CCCE84E10E9467F88091080290910902D4
:10F5F000892B09F43DC000E010E080910601909154
:10F60000070116C0FC0184910E9467F880910601F1
:10F6100090910701019690930701809306010F5F77
:10F620001F4F20910802309109020217130700F5BD
:10F6300020910C0220FD73C021FFE4CFA0E0B0E0D8
:10F640001196ABBFFC0187910E9467F8DFCF0E9443
:10F6500095F8803209F0BECE84E10E9467F88EE111
:10F660000E9467F887E90E9467F882E00E9467F8C5
:10F6700080E10E9467F881CE83E00E941EF97DCE72
:10F680000E9495F80E9495F8182F0E9495F8112372
:10F6900009F4CFC0113009F4D0C082E00E941EF9F5
:10F6A0006CCE81E00E941EF968CE0E9495F88132EE
:10F6B00009F063CE0E9495F8813209F05ECEA49ADB
:10F6C000AC9810920A028AE00E9467F88DE00E94CE
:10F6D00067F88AE30E9467F880E20E9467F80E9458
:10F6E00095F8182F0E9467F8143709F4E6C012370E
:10F6F00009F4CCC0173709F4B1C0153709F4A5C017
:10F70000123609F4E1C01A36F1F6E0910201F091E7
:10F7100003010995D8CF80E10E941EF92ECE0E94E8
:10F720007EFC0E9467F88091060190910701019686
:10F73000909307018093060172CF8091070187FDA6
:10F7400080C010920B0280E08BBF809106019091E7
:10F750000701880F991F90930701809306018091FC
:10F76000080280FF09C08091080290910902019669
:10F770009093090280930802F894E199FECF112733
:10F78000E0910601F0910701C8E0D1E08091080204
:10F7900090910902103091F40091680001700130DD
:10F7A000D9F303E000936800E895009168000170C8
:10F7B0000130D9F301E100936800E89509901990B0
:10F7C0000091680001700130D9F301E000936800F6
:10F7D000E8951395103898F0112700916800017092
:10F7E0000130D9F305E000936800E89500916800C6
:10F7F00001700130D9F301E100936800E895329679
:10F80000029709F0C7CF103011F00296E5CF11240E
:10F8100084E10E9467F880E10E9467F8AECD809194
:10F820000C02816080930C02D7CE226020930C02E0
:10F83000C3CE8EE10E941EF9A0CD87E90E941EF979
:10F840009CCDD0920B0281E07FCF0E9495F80E9460
:10F8500067F80E9495F80E9467F8F7CF0E9495F824
:10F860000E9467F80E94FDF8082F0E94FDF8182FEB
:10F870000E9495F80E9467F80E94FDF8E02FF0E0E2
:10F88000FE2FEE27E10FF11D80831DCF0E9495F81A
:10F890000E9467F80E94FDF8082F0E94FDF8182FBB
:10F8A0008DE30E9467F8E02FF0E0FE2FEE27E10FD6
:10F8B000F11D80810E9479F806CF9C9B1AC0AC98FC
:10F8C00081E30E9467F8FFCE82E60E9467F885E731
:10F8D0000E9467F883E70E9467F880E885BF10926E
:10F8E0006D0010926C00E0E0F1E181913097E9F752
:10F8F000FACFAC9A80E30E9467F8E5CEE199FECF9B
:10F900009FBB8EBBE09A99278DB30895262FE1996E
:10F91000FECF9FBB8EBB2DBB0FB6F894E29AE19A47
:0AF920000FBE01960895F894FFCF82
:02F92A0080005B
:040000031000F000F9
:00000001FF
